{
  "abi": [
    {
      "inputs": [],
      "stateMutability": "nonpayable",
      "type": "constructor"
    },
    {
      "inputs": [],
      "name": "count",
      "outputs": [
        {
          "internalType": "string[]",
          "name": "",
          "type": "string[]"
        }
      ],
      "stateMutability": "nonpayable",
      "type": "function"
    },
    {
      "inputs": [
        {
          "internalType": "string",
          "name": "voterId",
          "type": "string"
        },
        {
          "internalType": "string",
          "name": "vote",
          "type": "string"
        }
      ],
      "name": "store",
      "outputs": [],
      "stateMutability": "nonpayable",
      "type": "function"
    },
    {
      "inputs": [],
      "name": "voterCount",
      "outputs": [
        {
          "internalType": "int256",
          "name": "",
          "type": "int256"
        }
      ],
      "stateMutability": "view",
      "type": "function"
    },
    {
      "inputs": [
        {
          "internalType": "string",
          "name": "",
          "type": "string"
        }
      ],
      "name": "voterlist",
      "outputs": [
        {
          "internalType": "int256",
          "name": "",
          "type": "int256"
        }
      ],
      "stateMutability": "view",
      "type": "function"
    }
  ],
  "devdoc": {
    "custom:dev-run-script": "./scripts/deploy_with_ethers.ts",
    "details": "Store & retrieve value in a variable",
    "kind": "dev",
    "methods": {},
    "title": "Storage",
    "version": 1
  },
  "evm": {
    "assembly": "    /* \"ElectionContract.sol\":199:853  contract Storage {... */\n  mstore(0x40, 0x80)\n    /* \"ElectionContract.sol\":420:497  constructor()... */\n  callvalue\n  dup1\n  iszero\n  tag_1\n  jumpi\n  0x00\n  dup1\n  revert\ntag_1:\n  pop\n    /* \"ElectionContract.sol\":456:466  msg.sender */\n  caller\n    /* \"ElectionContract.sol\":448:453  owner */\n  0x02\n  0x00\n    /* \"ElectionContract.sol\":448:466  owner = msg.sender */\n  0x0100\n  exp\n  dup2\n  sload\n  dup2\n  0xffffffffffffffffffffffffffffffffffffffff\n  mul\n  not\n  and\n  swap1\n  dup4\n  0xffffffffffffffffffffffffffffffffffffffff\n  and\n  mul\n  or\n  swap1\n  sstore\n  pop\n    /* \"ElectionContract.sol\":489:490  0 */\n  0x00\n    /* \"ElectionContract.sol\":476:486  voterCount */\n  0x03\n    /* \"ElectionContract.sol\":476:490  voterCount = 0 */\n  dup2\n  swap1\n  sstore\n  pop\n    /* \"ElectionContract.sol\":199:853  contract Storage {... */\n  dataSize(sub_0)\n  dup1\n  dataOffset(sub_0)\n  0x00\n  codecopy\n  0x00\n  return\nstop\n\nsub_0: assembly {\n        /* \"ElectionContract.sol\":199:853  contract Storage {... */\n      mstore(0x40, 0x80)\n      callvalue\n      dup1\n      iszero\n      tag_1\n      jumpi\n      0x00\n      dup1\n      revert\n    tag_1:\n      pop\n      jumpi(tag_2, lt(calldatasize, 0x04))\n      shr(0xe0, calldataload(0x00))\n      dup1\n      0x06661abd\n      eq\n      tag_3\n      jumpi\n      dup1\n      0x42169e48\n      eq\n      tag_4\n      jumpi\n      dup1\n      0x4d6f05fa\n      eq\n      tag_5\n      jumpi\n      dup1\n      0xf641090c\n      eq\n      tag_6\n      jumpi\n    tag_2:\n      0x00\n      dup1\n      revert\n        /* \"ElectionContract.sol\":749:848  function count() external onlyOwner returns(string[] memory)... */\n    tag_3:\n      tag_7\n      tag_8\n      jump\t// in\n    tag_7:\n      mload(0x40)\n      tag_9\n      swap2\n      swap1\n      tag_10\n      jump\t// in\n    tag_9:\n      mload(0x40)\n      dup1\n      swap2\n      sub\n      swap1\n      return\n        /* \"ElectionContract.sol\":390:414  int256 public voterCount */\n    tag_4:\n      tag_11\n      tag_12\n      jump\t// in\n    tag_11:\n      mload(0x40)\n      tag_13\n      swap2\n      swap1\n      tag_14\n      jump\t// in\n    tag_13:\n      mload(0x40)\n      dup1\n      swap2\n      sub\n      swap1\n      return\n        /* \"ElectionContract.sol\":222:264  mapping(string => int256) public voterlist */\n    tag_5:\n      tag_15\n      0x04\n      dup1\n      calldatasize\n      sub\n      dup2\n      add\n      swap1\n      tag_16\n      swap2\n      swap1\n      tag_17\n      jump\t// in\n    tag_16:\n      tag_18\n      jump\t// in\n    tag_15:\n      mload(0x40)\n      tag_19\n      swap2\n      swap1\n      tag_14\n      jump\t// in\n    tag_19:\n      mload(0x40)\n      dup1\n      swap2\n      sub\n      swap1\n      return\n        /* \"ElectionContract.sol\":503:744  function store(string memory voterId,string memory vote) public onlyOwner... */\n    tag_6:\n      tag_20\n      0x04\n      dup1\n      calldatasize\n      sub\n      dup2\n      add\n      swap1\n      tag_21\n      swap2\n      swap1\n      tag_22\n      jump\t// in\n    tag_21:\n      tag_23\n      jump\t// in\n    tag_20:\n      stop\n        /* \"ElectionContract.sol\":749:848  function count() external onlyOwner returns(string[] memory)... */\n    tag_8:\n        /* \"ElectionContract.sol\":793:808  string[] memory */\n      0x60\n        /* \"ElectionContract.sol\":363:368  owner */\n      0x02\n      0x00\n      swap1\n      sload\n      swap1\n      0x0100\n      exp\n      swap1\n      div\n      0xffffffffffffffffffffffffffffffffffffffff\n      and\n        /* \"ElectionContract.sol\":349:368  msg.sender == owner */\n      0xffffffffffffffffffffffffffffffffffffffff\n      and\n        /* \"ElectionContract.sol\":349:359  msg.sender */\n      caller\n        /* \"ElectionContract.sol\":349:368  msg.sender == owner */\n      0xffffffffffffffffffffffffffffffffffffffff\n      and\n      eq\n        /* \"ElectionContract.sol\":341:369  require(msg.sender == owner) */\n      tag_25\n      jumpi\n      0x00\n      dup1\n      revert\n    tag_25:\n        /* \"ElectionContract.sol\":831:841  ballotlist */\n      0x01\n        /* \"ElectionContract.sol\":824:841  return ballotlist */\n      dup1\n      sload\n      dup1\n      0x20\n      mul\n      0x20\n      add\n      mload(0x40)\n      swap1\n      dup2\n      add\n      0x40\n      mstore\n      dup1\n      swap3\n      swap2\n      swap1\n      dup2\n      dup2\n      mstore\n      0x20\n      add\n      0x00\n      swap1\n    tag_27:\n      dup3\n      dup3\n      lt\n      iszero\n      tag_28\n      jumpi\n      dup4\n      dup3\n      swap1\n      0x00\n      mstore\n      keccak256(0x00, 0x20)\n      add\n      dup1\n      sload\n      tag_30\n      swap1\n      tag_31\n      jump\t// in\n    tag_30:\n      dup1\n      0x1f\n      add\n      0x20\n      dup1\n      swap2\n      div\n      mul\n      0x20\n      add\n      mload(0x40)\n      swap1\n      dup2\n      add\n      0x40\n      mstore\n      dup1\n      swap3\n      swap2\n      swap1\n      dup2\n      dup2\n      mstore\n      0x20\n      add\n      dup3\n      dup1\n      sload\n      tag_32\n      swap1\n      tag_31\n      jump\t// in\n    tag_32:\n      dup1\n      iszero\n      tag_33\n      jumpi\n      dup1\n      0x1f\n      lt\n      tag_34\n      jumpi\n      0x0100\n      dup1\n      dup4\n      sload\n      div\n      mul\n      dup4\n      mstore\n      swap2\n      0x20\n      add\n      swap2\n      jump(tag_33)\n    tag_34:\n      dup3\n      add\n      swap2\n      swap1\n      0x00\n      mstore\n      keccak256(0x00, 0x20)\n      swap1\n    tag_35:\n      dup2\n      sload\n      dup2\n      mstore\n      swap1\n      0x01\n      add\n      swap1\n      0x20\n      add\n      dup1\n      dup4\n      gt\n      tag_35\n      jumpi\n      dup3\n      swap1\n      sub\n      0x1f\n      and\n      dup3\n      add\n      swap2\n    tag_33:\n      pop\n      pop\n      pop\n      pop\n      pop\n      dup2\n      mstore\n      0x20\n      add\n      swap1\n      0x01\n      add\n      swap1\n      jump(tag_27)\n    tag_28:\n      pop\n      pop\n      pop\n      pop\n      swap1\n      pop\n        /* \"ElectionContract.sol\":749:848  function count() external onlyOwner returns(string[] memory)... */\n      swap1\n      jump\t// out\n        /* \"ElectionContract.sol\":390:414  int256 public voterCount */\n    tag_12:\n      sload(0x03)\n      dup2\n      jump\t// out\n        /* \"ElectionContract.sol\":222:264  mapping(string => int256) public voterlist */\n    tag_18:\n      0x00\n      dup2\n      dup1\n      mload\n      0x20\n      dup2\n      add\n      dup3\n      add\n      dup1\n      mload\n      dup5\n      dup3\n      mstore\n      0x20\n      dup4\n      add\n      0x20\n      dup6\n      add\n      keccak256\n      dup2\n      dup4\n      mstore\n      dup1\n      swap6\n      pop\n      pop\n      pop\n      pop\n      pop\n      pop\n      0x00\n      swap2\n      pop\n      swap1\n      pop\n      sload\n      dup2\n      jump\t// out\n        /* \"ElectionContract.sol\":503:744  function store(string memory voterId,string memory vote) public onlyOwner... */\n    tag_23:\n        /* \"ElectionContract.sol\":363:368  owner */\n      0x02\n      0x00\n      swap1\n      sload\n      swap1\n      0x0100\n      exp\n      swap1\n      div\n      0xffffffffffffffffffffffffffffffffffffffff\n      and\n        /* \"ElectionContract.sol\":349:368  msg.sender == owner */\n      0xffffffffffffffffffffffffffffffffffffffff\n      and\n        /* \"ElectionContract.sol\":349:359  msg.sender */\n      caller\n        /* \"ElectionContract.sol\":349:368  msg.sender == owner */\n      0xffffffffffffffffffffffffffffffffffffffff\n      and\n      eq\n        /* \"ElectionContract.sol\":341:369  require(msg.sender == owner) */\n      tag_37\n      jumpi\n      0x00\n      dup1\n      revert\n    tag_37:\n        /* \"ElectionContract.sol\":616:617  0 */\n      0x00\n        /* \"ElectionContract.sol\":594:603  voterlist */\n      dup1\n        /* \"ElectionContract.sol\":604:611  voterId */\n      dup4\n        /* \"ElectionContract.sol\":594:612  voterlist[voterId] */\n      mload(0x40)\n      tag_39\n      swap2\n      swap1\n      tag_40\n      jump\t// in\n    tag_39:\n      swap1\n      dup2\n      mstore\n      0x20\n      add\n      mload(0x40)\n      dup1\n      swap2\n      sub\n      swap1\n      keccak256\n      sload\n        /* \"ElectionContract.sol\":594:617  voterlist[voterId] == 0 */\n      sub\n        /* \"ElectionContract.sol\":591:738  if(voterlist[voterId] == 0)... */\n      tag_41\n      jumpi\n        /* \"ElectionContract.sol\":641:651  ballotlist */\n      0x01\n        /* \"ElectionContract.sol\":657:661  vote */\n      dup2\n        /* \"ElectionContract.sol\":641:662  ballotlist.push(vote) */\n      swap1\n      dup1\n      0x01\n      dup2\n      sload\n      add\n      dup1\n      dup3\n      sstore\n      dup1\n      swap2\n      pop\n      pop\n      0x01\n      swap1\n      sub\n      swap1\n      0x00\n      mstore\n      keccak256(0x00, 0x20)\n      add\n      0x00\n      swap1\n      swap2\n      swap1\n      swap2\n      swap1\n      swap2\n      pop\n      swap1\n      dup1\n      mload\n      swap1\n      0x20\n      add\n      swap1\n      tag_43\n      swap3\n      swap2\n      swap1\n      tag_44\n      jump\t// in\n    tag_43:\n      pop\n        /* \"ElectionContract.sol\":697:698  1 */\n      0x01\n        /* \"ElectionContract.sol\":676:685  voterlist */\n      0x00\n        /* \"ElectionContract.sol\":686:693  voterId */\n      dup4\n        /* \"ElectionContract.sol\":676:694  voterlist[voterId] */\n      mload(0x40)\n      tag_45\n      swap2\n      swap1\n      tag_40\n      jump\t// in\n    tag_45:\n      swap1\n      dup2\n      mstore\n      0x20\n      add\n      mload(0x40)\n      dup1\n      swap2\n      sub\n      swap1\n      keccak256\n        /* \"ElectionContract.sol\":676:698  voterlist[voterId] = 1 */\n      dup2\n      swap1\n      sstore\n      pop\n        /* \"ElectionContract.sol\":726:727  1 */\n      0x01\n        /* \"ElectionContract.sol\":712:722  voterCount */\n      0x03\n      0x00\n        /* \"ElectionContract.sol\":712:727  voterCount += 1 */\n      dup3\n      dup3\n      sload\n      tag_46\n      swap2\n      swap1\n      tag_47\n      jump\t// in\n    tag_46:\n      swap3\n      pop\n      pop\n      dup2\n      swap1\n      sstore\n      pop\n        /* \"ElectionContract.sol\":591:738  if(voterlist[voterId] == 0)... */\n    tag_41:\n        /* \"ElectionContract.sol\":503:744  function store(string memory voterId,string memory vote) public onlyOwner... */\n      pop\n      pop\n      jump\t// out\n    tag_44:\n      dup3\n      dup1\n      sload\n      tag_48\n      swap1\n      tag_31\n      jump\t// in\n    tag_48:\n      swap1\n      0x00\n      mstore\n      keccak256(0x00, 0x20)\n      swap1\n      0x1f\n      add\n      0x20\n      swap1\n      div\n      dup2\n      add\n      swap3\n      dup3\n      tag_50\n      jumpi\n      0x00\n      dup6\n      sstore\n      jump(tag_49)\n    tag_50:\n      dup3\n      0x1f\n      lt\n      tag_51\n      jumpi\n      dup1\n      mload\n      not(0xff)\n      and\n      dup4\n      dup1\n      add\n      or\n      dup6\n      sstore\n      jump(tag_49)\n    tag_51:\n      dup3\n      dup1\n      add\n      0x01\n      add\n      dup6\n      sstore\n      dup3\n      iszero\n      tag_49\n      jumpi\n      swap2\n      dup3\n      add\n    tag_52:\n      dup3\n      dup2\n      gt\n      iszero\n      tag_53\n      jumpi\n      dup3\n      mload\n      dup3\n      sstore\n      swap2\n      0x20\n      add\n      swap2\n      swap1\n      0x01\n      add\n      swap1\n      jump(tag_52)\n    tag_53:\n    tag_49:\n      pop\n      swap1\n      pop\n      tag_54\n      swap2\n      swap1\n      tag_55\n      jump\t// in\n    tag_54:\n      pop\n      swap1\n      jump\t// out\n    tag_55:\n    tag_56:\n      dup1\n      dup3\n      gt\n      iszero\n      tag_57\n      jumpi\n      0x00\n      dup2\n      0x00\n      swap1\n      sstore\n      pop\n      0x01\n      add\n      jump(tag_56)\n    tag_57:\n      pop\n      swap1\n      jump\t// out\n        /* \"#utility.yul\":7:131   */\n    tag_58:\n        /* \"#utility.yul\":84:90   */\n      0x00\n        /* \"#utility.yul\":118:123   */\n      dup2\n        /* \"#utility.yul\":112:124   */\n      mload\n        /* \"#utility.yul\":102:124   */\n      swap1\n      pop\n        /* \"#utility.yul\":7:131   */\n      swap2\n      swap1\n      pop\n      jump\t// out\n        /* \"#utility.yul\":137:331   */\n    tag_59:\n        /* \"#utility.yul\":246:257   */\n      0x00\n        /* \"#utility.yul\":280:286   */\n      dup3\n        /* \"#utility.yul\":275:278   */\n      dup3\n        /* \"#utility.yul\":268:287   */\n      mstore\n        /* \"#utility.yul\":320:324   */\n      0x20\n        /* \"#utility.yul\":315:318   */\n      dup3\n        /* \"#utility.yul\":311:325   */\n      add\n        /* \"#utility.yul\":296:325   */\n      swap1\n      pop\n        /* \"#utility.yul\":137:331   */\n      swap3\n      swap2\n      pop\n      pop\n      jump\t// out\n        /* \"#utility.yul\":337:479   */\n    tag_60:\n        /* \"#utility.yul\":414:418   */\n      0x00\n        /* \"#utility.yul\":437:440   */\n      dup2\n        /* \"#utility.yul\":429:440   */\n      swap1\n      pop\n        /* \"#utility.yul\":467:471   */\n      0x20\n        /* \"#utility.yul\":462:465   */\n      dup3\n        /* \"#utility.yul\":458:472   */\n      add\n        /* \"#utility.yul\":450:472   */\n      swap1\n      pop\n        /* \"#utility.yul\":337:479   */\n      swap2\n      swap1\n      pop\n      jump\t// out\n        /* \"#utility.yul\":485:584   */\n    tag_61:\n        /* \"#utility.yul\":537:543   */\n      0x00\n        /* \"#utility.yul\":571:576   */\n      dup2\n        /* \"#utility.yul\":565:577   */\n      mload\n        /* \"#utility.yul\":555:577   */\n      swap1\n      pop\n        /* \"#utility.yul\":485:584   */\n      swap2\n      swap1\n      pop\n      jump\t// out\n        /* \"#utility.yul\":590:749   */\n    tag_62:\n        /* \"#utility.yul\":664:675   */\n      0x00\n        /* \"#utility.yul\":698:704   */\n      dup3\n        /* \"#utility.yul\":693:696   */\n      dup3\n        /* \"#utility.yul\":686:705   */\n      mstore\n        /* \"#utility.yul\":738:742   */\n      0x20\n        /* \"#utility.yul\":733:736   */\n      dup3\n        /* \"#utility.yul\":729:743   */\n      add\n        /* \"#utility.yul\":714:743   */\n      swap1\n      pop\n        /* \"#utility.yul\":590:749   */\n      swap3\n      swap2\n      pop\n      pop\n      jump\t// out\n        /* \"#utility.yul\":755:1062   */\n    tag_63:\n        /* \"#utility.yul\":823:824   */\n      0x00\n        /* \"#utility.yul\":833:946   */\n    tag_94:\n        /* \"#utility.yul\":847:853   */\n      dup4\n        /* \"#utility.yul\":844:845   */\n      dup2\n        /* \"#utility.yul\":841:854   */\n      lt\n        /* \"#utility.yul\":833:946   */\n      iszero\n      tag_96\n      jumpi\n        /* \"#utility.yul\":932:933   */\n      dup1\n        /* \"#utility.yul\":927:930   */\n      dup3\n        /* \"#utility.yul\":923:934   */\n      add\n        /* \"#utility.yul\":917:935   */\n      mload\n        /* \"#utility.yul\":913:914   */\n      dup2\n        /* \"#utility.yul\":908:911   */\n      dup5\n        /* \"#utility.yul\":904:915   */\n      add\n        /* \"#utility.yul\":897:936   */\n      mstore\n        /* \"#utility.yul\":869:871   */\n      0x20\n        /* \"#utility.yul\":866:867   */\n      dup2\n        /* \"#utility.yul\":862:872   */\n      add\n        /* \"#utility.yul\":857:872   */\n      swap1\n      pop\n        /* \"#utility.yul\":833:946   */\n      jump(tag_94)\n    tag_96:\n        /* \"#utility.yul\":964:970   */\n      dup4\n        /* \"#utility.yul\":961:962   */\n      dup2\n        /* \"#utility.yul\":958:971   */\n      gt\n        /* \"#utility.yul\":955:1056   */\n      iszero\n      tag_97\n      jumpi\n        /* \"#utility.yul\":1044:1045   */\n      0x00\n        /* \"#utility.yul\":1035:1041   */\n      dup5\n        /* \"#utility.yul\":1030:1033   */\n      dup5\n        /* \"#utility.yul\":1026:1042   */\n      add\n        /* \"#utility.yul\":1019:1046   */\n      mstore\n        /* \"#utility.yul\":955:1056   */\n    tag_97:\n        /* \"#utility.yul\":804:1062   */\n      pop\n        /* \"#utility.yul\":755:1062   */\n      pop\n      pop\n      pop\n      jump\t// out\n        /* \"#utility.yul\":1068:1170   */\n    tag_64:\n        /* \"#utility.yul\":1109:1115   */\n      0x00\n        /* \"#utility.yul\":1160:1162   */\n      0x1f\n        /* \"#utility.yul\":1156:1163   */\n      not\n        /* \"#utility.yul\":1151:1153   */\n      0x1f\n        /* \"#utility.yul\":1144:1149   */\n      dup4\n        /* \"#utility.yul\":1140:1154   */\n      add\n        /* \"#utility.yul\":1136:1164   */\n      and\n        /* \"#utility.yul\":1126:1164   */\n      swap1\n      pop\n        /* \"#utility.yul\":1068:1170   */\n      swap2\n      swap1\n      pop\n      jump\t// out\n        /* \"#utility.yul\":1176:1520   */\n    tag_65:\n        /* \"#utility.yul\":1254:1257   */\n      0x00\n        /* \"#utility.yul\":1282:1321   */\n      tag_100\n        /* \"#utility.yul\":1315:1320   */\n      dup3\n        /* \"#utility.yul\":1282:1321   */\n      tag_61\n      jump\t// in\n    tag_100:\n        /* \"#utility.yul\":1337:1398   */\n      tag_101\n        /* \"#utility.yul\":1391:1397   */\n      dup2\n        /* \"#utility.yul\":1386:1389   */\n      dup6\n        /* \"#utility.yul\":1337:1398   */\n      tag_62\n      jump\t// in\n    tag_101:\n        /* \"#utility.yul\":1330:1398   */\n      swap4\n      pop\n        /* \"#utility.yul\":1407:1459   */\n      tag_102\n        /* \"#utility.yul\":1452:1458   */\n      dup2\n        /* \"#utility.yul\":1447:1450   */\n      dup6\n        /* \"#utility.yul\":1440:1444   */\n      0x20\n        /* \"#utility.yul\":1433:1438   */\n      dup7\n        /* \"#utility.yul\":1429:1445   */\n      add\n        /* \"#utility.yul\":1407:1459   */\n      tag_63\n      jump\t// in\n    tag_102:\n        /* \"#utility.yul\":1484:1513   */\n      tag_103\n        /* \"#utility.yul\":1506:1512   */\n      dup2\n        /* \"#utility.yul\":1484:1513   */\n      tag_64\n      jump\t// in\n    tag_103:\n        /* \"#utility.yul\":1479:1482   */\n      dup5\n        /* \"#utility.yul\":1475:1514   */\n      add\n        /* \"#utility.yul\":1468:1514   */\n      swap2\n      pop\n        /* \"#utility.yul\":1258:1520   */\n      pop\n        /* \"#utility.yul\":1176:1520   */\n      swap3\n      swap2\n      pop\n      pop\n      jump\t// out\n        /* \"#utility.yul\":1526:1722   */\n    tag_66:\n        /* \"#utility.yul\":1615:1625   */\n      0x00\n        /* \"#utility.yul\":1650:1716   */\n      tag_105\n        /* \"#utility.yul\":1712:1715   */\n      dup4\n        /* \"#utility.yul\":1704:1710   */\n      dup4\n        /* \"#utility.yul\":1650:1716   */\n      tag_65\n      jump\t// in\n    tag_105:\n        /* \"#utility.yul\":1636:1716   */\n      swap1\n      pop\n        /* \"#utility.yul\":1526:1722   */\n      swap3\n      swap2\n      pop\n      pop\n      jump\t// out\n        /* \"#utility.yul\":1728:1851   */\n    tag_67:\n        /* \"#utility.yul\":1808:1812   */\n      0x00\n        /* \"#utility.yul\":1840:1844   */\n      0x20\n        /* \"#utility.yul\":1835:1838   */\n      dup3\n        /* \"#utility.yul\":1831:1845   */\n      add\n        /* \"#utility.yul\":1823:1845   */\n      swap1\n      pop\n        /* \"#utility.yul\":1728:1851   */\n      swap2\n      swap1\n      pop\n      jump\t// out\n        /* \"#utility.yul\":1885:2876   */\n    tag_68:\n        /* \"#utility.yul\":2024:2027   */\n      0x00\n        /* \"#utility.yul\":2053:2117   */\n      tag_108\n        /* \"#utility.yul\":2111:2116   */\n      dup3\n        /* \"#utility.yul\":2053:2117   */\n      tag_58\n      jump\t// in\n    tag_108:\n        /* \"#utility.yul\":2133:2229   */\n      tag_109\n        /* \"#utility.yul\":2222:2228   */\n      dup2\n        /* \"#utility.yul\":2217:2220   */\n      dup6\n        /* \"#utility.yul\":2133:2229   */\n      tag_59\n      jump\t// in\n    tag_109:\n        /* \"#utility.yul\":2126:2229   */\n      swap4\n      pop\n        /* \"#utility.yul\":2255:2258   */\n      dup4\n        /* \"#utility.yul\":2300:2304   */\n      0x20\n        /* \"#utility.yul\":2292:2298   */\n      dup3\n        /* \"#utility.yul\":2288:2305   */\n      mul\n        /* \"#utility.yul\":2283:2286   */\n      dup6\n        /* \"#utility.yul\":2279:2306   */\n      add\n        /* \"#utility.yul\":2330:2396   */\n      tag_110\n        /* \"#utility.yul\":2390:2395   */\n      dup6\n        /* \"#utility.yul\":2330:2396   */\n      tag_60\n      jump\t// in\n    tag_110:\n        /* \"#utility.yul\":2419:2426   */\n      dup1\n        /* \"#utility.yul\":2450:2451   */\n      0x00\n        /* \"#utility.yul\":2435:2831   */\n    tag_111:\n        /* \"#utility.yul\":2460:2466   */\n      dup6\n        /* \"#utility.yul\":2457:2458   */\n      dup2\n        /* \"#utility.yul\":2454:2467   */\n      lt\n        /* \"#utility.yul\":2435:2831   */\n      iszero\n      tag_113\n      jumpi\n        /* \"#utility.yul\":2531:2540   */\n      dup5\n        /* \"#utility.yul\":2525:2529   */\n      dup5\n        /* \"#utility.yul\":2521:2541   */\n      sub\n        /* \"#utility.yul\":2516:2519   */\n      dup10\n        /* \"#utility.yul\":2509:2542   */\n      mstore\n        /* \"#utility.yul\":2582:2588   */\n      dup2\n        /* \"#utility.yul\":2576:2589   */\n      mload\n        /* \"#utility.yul\":2610:2694   */\n      tag_114\n        /* \"#utility.yul\":2689:2693   */\n      dup6\n        /* \"#utility.yul\":2674:2687   */\n      dup3\n        /* \"#utility.yul\":2610:2694   */\n      tag_66\n      jump\t// in\n    tag_114:\n        /* \"#utility.yul\":2602:2694   */\n      swap5\n      pop\n        /* \"#utility.yul\":2717:2787   */\n      tag_115\n        /* \"#utility.yul\":2780:2786   */\n      dup4\n        /* \"#utility.yul\":2717:2787   */\n      tag_67\n      jump\t// in\n    tag_115:\n        /* \"#utility.yul\":2707:2787   */\n      swap3\n      pop\n        /* \"#utility.yul\":2816:2820   */\n      0x20\n        /* \"#utility.yul\":2811:2814   */\n      dup11\n        /* \"#utility.yul\":2807:2821   */\n      add\n        /* \"#utility.yul\":2800:2821   */\n      swap10\n      pop\n        /* \"#utility.yul\":2495:2831   */\n      pop\n        /* \"#utility.yul\":2482:2483   */\n      0x01\n        /* \"#utility.yul\":2479:2480   */\n      dup2\n        /* \"#utility.yul\":2475:2484   */\n      add\n        /* \"#utility.yul\":2470:2484   */\n      swap1\n      pop\n        /* \"#utility.yul\":2435:2831   */\n      jump(tag_111)\n    tag_113:\n        /* \"#utility.yul\":2439:2453   */\n      pop\n        /* \"#utility.yul\":2847:2851   */\n      dup3\n        /* \"#utility.yul\":2840:2851   */\n      swap8\n      pop\n        /* \"#utility.yul\":2867:2870   */\n      dup8\n        /* \"#utility.yul\":2860:2870   */\n      swap6\n      pop\n        /* \"#utility.yul\":2029:2876   */\n      pop\n      pop\n      pop\n      pop\n      pop\n        /* \"#utility.yul\":1885:2876   */\n      swap3\n      swap2\n      pop\n      pop\n      jump\t// out\n        /* \"#utility.yul\":2882:3295   */\n    tag_10:\n        /* \"#utility.yul\":3045:3049   */\n      0x00\n        /* \"#utility.yul\":3083:3085   */\n      0x20\n        /* \"#utility.yul\":3072:3081   */\n      dup3\n        /* \"#utility.yul\":3068:3086   */\n      add\n        /* \"#utility.yul\":3060:3086   */\n      swap1\n      pop\n        /* \"#utility.yul\":3132:3141   */\n      dup2\n        /* \"#utility.yul\":3126:3130   */\n      dup2\n        /* \"#utility.yul\":3122:3142   */\n      sub\n        /* \"#utility.yul\":3118:3119   */\n      0x00\n        /* \"#utility.yul\":3107:3116   */\n      dup4\n        /* \"#utility.yul\":3103:3120   */\n      add\n        /* \"#utility.yul\":3096:3143   */\n      mstore\n        /* \"#utility.yul\":3160:3288   */\n      tag_117\n        /* \"#utility.yul\":3283:3287   */\n      dup2\n        /* \"#utility.yul\":3274:3280   */\n      dup5\n        /* \"#utility.yul\":3160:3288   */\n      tag_68\n      jump\t// in\n    tag_117:\n        /* \"#utility.yul\":3152:3288   */\n      swap1\n      pop\n        /* \"#utility.yul\":2882:3295   */\n      swap3\n      swap2\n      pop\n      pop\n      jump\t// out\n        /* \"#utility.yul\":3301:3377   */\n    tag_69:\n        /* \"#utility.yul\":3337:3344   */\n      0x00\n        /* \"#utility.yul\":3366:3371   */\n      dup2\n        /* \"#utility.yul\":3355:3371   */\n      swap1\n      pop\n        /* \"#utility.yul\":3301:3377   */\n      swap2\n      swap1\n      pop\n      jump\t// out\n        /* \"#utility.yul\":3383:3498   */\n    tag_70:\n        /* \"#utility.yul\":3468:3491   */\n      tag_120\n        /* \"#utility.yul\":3485:3490   */\n      dup2\n        /* \"#utility.yul\":3468:3491   */\n      tag_69\n      jump\t// in\n    tag_120:\n        /* \"#utility.yul\":3463:3466   */\n      dup3\n        /* \"#utility.yul\":3456:3492   */\n      mstore\n        /* \"#utility.yul\":3383:3498   */\n      pop\n      pop\n      jump\t// out\n        /* \"#utility.yul\":3504:3722   */\n    tag_14:\n        /* \"#utility.yul\":3595:3599   */\n      0x00\n        /* \"#utility.yul\":3633:3635   */\n      0x20\n        /* \"#utility.yul\":3622:3631   */\n      dup3\n        /* \"#utility.yul\":3618:3636   */\n      add\n        /* \"#utility.yul\":3610:3636   */\n      swap1\n      pop\n        /* \"#utility.yul\":3646:3715   */\n      tag_122\n        /* \"#utility.yul\":3712:3713   */\n      0x00\n        /* \"#utility.yul\":3701:3710   */\n      dup4\n        /* \"#utility.yul\":3697:3714   */\n      add\n        /* \"#utility.yul\":3688:3694   */\n      dup5\n        /* \"#utility.yul\":3646:3715   */\n      tag_70\n      jump\t// in\n    tag_122:\n        /* \"#utility.yul\":3504:3722   */\n      swap3\n      swap2\n      pop\n      pop\n      jump\t// out\n        /* \"#utility.yul\":3728:3803   */\n    tag_71:\n        /* \"#utility.yul\":3761:3767   */\n      0x00\n        /* \"#utility.yul\":3794:3796   */\n      0x40\n        /* \"#utility.yul\":3788:3797   */\n      mload\n        /* \"#utility.yul\":3778:3797   */\n      swap1\n      pop\n        /* \"#utility.yul\":3728:3803   */\n      swap1\n      jump\t// out\n        /* \"#utility.yul\":3809:3926   */\n    tag_72:\n        /* \"#utility.yul\":3918:3919   */\n      0x00\n        /* \"#utility.yul\":3915:3916   */\n      dup1\n        /* \"#utility.yul\":3908:3920   */\n      revert\n        /* \"#utility.yul\":3932:4049   */\n    tag_73:\n        /* \"#utility.yul\":4041:4042   */\n      0x00\n        /* \"#utility.yul\":4038:4039   */\n      dup1\n        /* \"#utility.yul\":4031:4043   */\n      revert\n        /* \"#utility.yul\":4055:4172   */\n    tag_74:\n        /* \"#utility.yul\":4164:4165   */\n      0x00\n        /* \"#utility.yul\":4161:4162   */\n      dup1\n        /* \"#utility.yul\":4154:4166   */\n      revert\n        /* \"#utility.yul\":4178:4295   */\n    tag_75:\n        /* \"#utility.yul\":4287:4288   */\n      0x00\n        /* \"#utility.yul\":4284:4285   */\n      dup1\n        /* \"#utility.yul\":4277:4289   */\n      revert\n        /* \"#utility.yul\":4301:4481   */\n    tag_76:\n        /* \"#utility.yul\":4349:4426   */\n      0x4e487b7100000000000000000000000000000000000000000000000000000000\n        /* \"#utility.yul\":4346:4347   */\n      0x00\n        /* \"#utility.yul\":4339:4427   */\n      mstore\n        /* \"#utility.yul\":4446:4450   */\n      0x41\n        /* \"#utility.yul\":4443:4444   */\n      0x04\n        /* \"#utility.yul\":4436:4451   */\n      mstore\n        /* \"#utility.yul\":4470:4474   */\n      0x24\n        /* \"#utility.yul\":4467:4468   */\n      0x00\n        /* \"#utility.yul\":4460:4475   */\n      revert\n        /* \"#utility.yul\":4487:4768   */\n    tag_77:\n        /* \"#utility.yul\":4570:4597   */\n      tag_130\n        /* \"#utility.yul\":4592:4596   */\n      dup3\n        /* \"#utility.yul\":4570:4597   */\n      tag_64\n      jump\t// in\n    tag_130:\n        /* \"#utility.yul\":4562:4568   */\n      dup2\n        /* \"#utility.yul\":4558:4598   */\n      add\n        /* \"#utility.yul\":4700:4706   */\n      dup2\n        /* \"#utility.yul\":4688:4698   */\n      dup2\n        /* \"#utility.yul\":4685:4707   */\n      lt\n        /* \"#utility.yul\":4664:4682   */\n      0xffffffffffffffff\n        /* \"#utility.yul\":4652:4662   */\n      dup3\n        /* \"#utility.yul\":4649:4683   */\n      gt\n        /* \"#utility.yul\":4646:4708   */\n      or\n        /* \"#utility.yul\":4643:4731   */\n      iszero\n      tag_131\n      jumpi\n        /* \"#utility.yul\":4711:4729   */\n      tag_132\n      tag_76\n      jump\t// in\n    tag_132:\n        /* \"#utility.yul\":4643:4731   */\n    tag_131:\n        /* \"#utility.yul\":4751:4761   */\n      dup1\n        /* \"#utility.yul\":4747:4749   */\n      0x40\n        /* \"#utility.yul\":4740:4762   */\n      mstore\n        /* \"#utility.yul\":4530:4768   */\n      pop\n        /* \"#utility.yul\":4487:4768   */\n      pop\n      pop\n      jump\t// out\n        /* \"#utility.yul\":4774:4903   */\n    tag_78:\n        /* \"#utility.yul\":4808:4814   */\n      0x00\n        /* \"#utility.yul\":4835:4855   */\n      tag_134\n      tag_71\n      jump\t// in\n    tag_134:\n        /* \"#utility.yul\":4825:4855   */\n      swap1\n      pop\n        /* \"#utility.yul\":4864:4897   */\n      tag_135\n        /* \"#utility.yul\":4892:4896   */\n      dup3\n        /* \"#utility.yul\":4884:4890   */\n      dup3\n        /* \"#utility.yul\":4864:4897   */\n      tag_77\n      jump\t// in\n    tag_135:\n        /* \"#utility.yul\":4774:4903   */\n      swap2\n      swap1\n      pop\n      jump\t// out\n        /* \"#utility.yul\":4909:5217   */\n    tag_79:\n        /* \"#utility.yul\":4971:4975   */\n      0x00\n        /* \"#utility.yul\":5061:5079   */\n      0xffffffffffffffff\n        /* \"#utility.yul\":5053:5059   */\n      dup3\n        /* \"#utility.yul\":5050:5080   */\n      gt\n        /* \"#utility.yul\":5047:5103   */\n      iszero\n      tag_137\n      jumpi\n        /* \"#utility.yul\":5083:5101   */\n      tag_138\n      tag_76\n      jump\t// in\n    tag_138:\n        /* \"#utility.yul\":5047:5103   */\n    tag_137:\n        /* \"#utility.yul\":5121:5150   */\n      tag_139\n        /* \"#utility.yul\":5143:5149   */\n      dup3\n        /* \"#utility.yul\":5121:5150   */\n      tag_64\n      jump\t// in\n    tag_139:\n        /* \"#utility.yul\":5113:5150   */\n      swap1\n      pop\n        /* \"#utility.yul\":5205:5209   */\n      0x20\n        /* \"#utility.yul\":5199:5203   */\n      dup2\n        /* \"#utility.yul\":5195:5210   */\n      add\n        /* \"#utility.yul\":5187:5210   */\n      swap1\n      pop\n        /* \"#utility.yul\":4909:5217   */\n      swap2\n      swap1\n      pop\n      jump\t// out\n        /* \"#utility.yul\":5223:5377   */\n    tag_80:\n        /* \"#utility.yul\":5307:5313   */\n      dup3\n        /* \"#utility.yul\":5302:5305   */\n      dup2\n        /* \"#utility.yul\":5297:5300   */\n      dup4\n        /* \"#utility.yul\":5284:5314   */\n      calldatacopy\n        /* \"#utility.yul\":5369:5370   */\n      0x00\n        /* \"#utility.yul\":5360:5366   */\n      dup4\n        /* \"#utility.yul\":5355:5358   */\n      dup4\n        /* \"#utility.yul\":5351:5367   */\n      add\n        /* \"#utility.yul\":5344:5371   */\n      mstore\n        /* \"#utility.yul\":5223:5377   */\n      pop\n      pop\n      pop\n      jump\t// out\n        /* \"#utility.yul\":5383:5795   */\n    tag_81:\n        /* \"#utility.yul\":5461:5466   */\n      0x00\n        /* \"#utility.yul\":5486:5552   */\n      tag_142\n        /* \"#utility.yul\":5502:5551   */\n      tag_143\n        /* \"#utility.yul\":5544:5550   */\n      dup5\n        /* \"#utility.yul\":5502:5551   */\n      tag_79\n      jump\t// in\n    tag_143:\n        /* \"#utility.yul\":5486:5552   */\n      tag_78\n      jump\t// in\n    tag_142:\n        /* \"#utility.yul\":5477:5552   */\n      swap1\n      pop\n        /* \"#utility.yul\":5575:5581   */\n      dup3\n        /* \"#utility.yul\":5568:5573   */\n      dup2\n        /* \"#utility.yul\":5561:5582   */\n      mstore\n        /* \"#utility.yul\":5613:5617   */\n      0x20\n        /* \"#utility.yul\":5606:5611   */\n      dup2\n        /* \"#utility.yul\":5602:5618   */\n      add\n        /* \"#utility.yul\":5651:5654   */\n      dup5\n        /* \"#utility.yul\":5642:5648   */\n      dup5\n        /* \"#utility.yul\":5637:5640   */\n      dup5\n        /* \"#utility.yul\":5633:5649   */\n      add\n        /* \"#utility.yul\":5630:5655   */\n      gt\n        /* \"#utility.yul\":5627:5739   */\n      iszero\n      tag_144\n      jumpi\n        /* \"#utility.yul\":5658:5737   */\n      tag_145\n      tag_75\n      jump\t// in\n    tag_145:\n        /* \"#utility.yul\":5627:5739   */\n    tag_144:\n        /* \"#utility.yul\":5748:5789   */\n      tag_146\n        /* \"#utility.yul\":5782:5788   */\n      dup5\n        /* \"#utility.yul\":5777:5780   */\n      dup3\n        /* \"#utility.yul\":5772:5775   */\n      dup6\n        /* \"#utility.yul\":5748:5789   */\n      tag_80\n      jump\t// in\n    tag_146:\n        /* \"#utility.yul\":5467:5795   */\n      pop\n        /* \"#utility.yul\":5383:5795   */\n      swap4\n      swap3\n      pop\n      pop\n      pop\n      jump\t// out\n        /* \"#utility.yul\":5815:6155   */\n    tag_82:\n        /* \"#utility.yul\":5871:5876   */\n      0x00\n        /* \"#utility.yul\":5920:5923   */\n      dup3\n        /* \"#utility.yul\":5913:5917   */\n      0x1f\n        /* \"#utility.yul\":5905:5911   */\n      dup4\n        /* \"#utility.yul\":5901:5918   */\n      add\n        /* \"#utility.yul\":5897:5924   */\n      slt\n        /* \"#utility.yul\":5887:6009   */\n      tag_148\n      jumpi\n        /* \"#utility.yul\":5928:6007   */\n      tag_149\n      tag_74\n      jump\t// in\n    tag_149:\n        /* \"#utility.yul\":5887:6009   */\n    tag_148:\n        /* \"#utility.yul\":6045:6051   */\n      dup2\n        /* \"#utility.yul\":6032:6052   */\n      calldataload\n        /* \"#utility.yul\":6070:6149   */\n      tag_150\n        /* \"#utility.yul\":6145:6148   */\n      dup5\n        /* \"#utility.yul\":6137:6143   */\n      dup3\n        /* \"#utility.yul\":6130:6134   */\n      0x20\n        /* \"#utility.yul\":6122:6128   */\n      dup7\n        /* \"#utility.yul\":6118:6135   */\n      add\n        /* \"#utility.yul\":6070:6149   */\n      tag_81\n      jump\t// in\n    tag_150:\n        /* \"#utility.yul\":6061:6149   */\n      swap2\n      pop\n        /* \"#utility.yul\":5877:6155   */\n      pop\n        /* \"#utility.yul\":5815:6155   */\n      swap3\n      swap2\n      pop\n      pop\n      jump\t// out\n        /* \"#utility.yul\":6161:6670   */\n    tag_17:\n        /* \"#utility.yul\":6230:6236   */\n      0x00\n        /* \"#utility.yul\":6279:6281   */\n      0x20\n        /* \"#utility.yul\":6267:6276   */\n      dup3\n        /* \"#utility.yul\":6258:6265   */\n      dup5\n        /* \"#utility.yul\":6254:6277   */\n      sub\n        /* \"#utility.yul\":6250:6282   */\n      slt\n        /* \"#utility.yul\":6247:6366   */\n      iszero\n      tag_152\n      jumpi\n        /* \"#utility.yul\":6285:6364   */\n      tag_153\n      tag_72\n      jump\t// in\n    tag_153:\n        /* \"#utility.yul\":6247:6366   */\n    tag_152:\n        /* \"#utility.yul\":6433:6434   */\n      0x00\n        /* \"#utility.yul\":6422:6431   */\n      dup3\n        /* \"#utility.yul\":6418:6435   */\n      add\n        /* \"#utility.yul\":6405:6436   */\n      calldataload\n        /* \"#utility.yul\":6463:6481   */\n      0xffffffffffffffff\n        /* \"#utility.yul\":6455:6461   */\n      dup2\n        /* \"#utility.yul\":6452:6482   */\n      gt\n        /* \"#utility.yul\":6449:6566   */\n      iszero\n      tag_154\n      jumpi\n        /* \"#utility.yul\":6485:6564   */\n      tag_155\n      tag_73\n      jump\t// in\n    tag_155:\n        /* \"#utility.yul\":6449:6566   */\n    tag_154:\n        /* \"#utility.yul\":6590:6653   */\n      tag_156\n        /* \"#utility.yul\":6645:6652   */\n      dup5\n        /* \"#utility.yul\":6636:6642   */\n      dup3\n        /* \"#utility.yul\":6625:6634   */\n      dup6\n        /* \"#utility.yul\":6621:6643   */\n      add\n        /* \"#utility.yul\":6590:6653   */\n      tag_82\n      jump\t// in\n    tag_156:\n        /* \"#utility.yul\":6580:6653   */\n      swap2\n      pop\n        /* \"#utility.yul\":6376:6663   */\n      pop\n        /* \"#utility.yul\":6161:6670   */\n      swap3\n      swap2\n      pop\n      pop\n      jump\t// out\n        /* \"#utility.yul\":6676:7510   */\n    tag_22:\n        /* \"#utility.yul\":6764:6770   */\n      0x00\n        /* \"#utility.yul\":6772:6778   */\n      dup1\n        /* \"#utility.yul\":6821:6823   */\n      0x40\n        /* \"#utility.yul\":6809:6818   */\n      dup4\n        /* \"#utility.yul\":6800:6807   */\n      dup6\n        /* \"#utility.yul\":6796:6819   */\n      sub\n        /* \"#utility.yul\":6792:6824   */\n      slt\n        /* \"#utility.yul\":6789:6908   */\n      iszero\n      tag_158\n      jumpi\n        /* \"#utility.yul\":6827:6906   */\n      tag_159\n      tag_72\n      jump\t// in\n    tag_159:\n        /* \"#utility.yul\":6789:6908   */\n    tag_158:\n        /* \"#utility.yul\":6975:6976   */\n      0x00\n        /* \"#utility.yul\":6964:6973   */\n      dup4\n        /* \"#utility.yul\":6960:6977   */\n      add\n        /* \"#utility.yul\":6947:6978   */\n      calldataload\n        /* \"#utility.yul\":7005:7023   */\n      0xffffffffffffffff\n        /* \"#utility.yul\":6997:7003   */\n      dup2\n        /* \"#utility.yul\":6994:7024   */\n      gt\n        /* \"#utility.yul\":6991:7108   */\n      iszero\n      tag_160\n      jumpi\n        /* \"#utility.yul\":7027:7106   */\n      tag_161\n      tag_73\n      jump\t// in\n    tag_161:\n        /* \"#utility.yul\":6991:7108   */\n    tag_160:\n        /* \"#utility.yul\":7132:7195   */\n      tag_162\n        /* \"#utility.yul\":7187:7194   */\n      dup6\n        /* \"#utility.yul\":7178:7184   */\n      dup3\n        /* \"#utility.yul\":7167:7176   */\n      dup7\n        /* \"#utility.yul\":7163:7185   */\n      add\n        /* \"#utility.yul\":7132:7195   */\n      tag_82\n      jump\t// in\n    tag_162:\n        /* \"#utility.yul\":7122:7195   */\n      swap3\n      pop\n        /* \"#utility.yul\":6918:7205   */\n      pop\n        /* \"#utility.yul\":7272:7274   */\n      0x20\n        /* \"#utility.yul\":7261:7270   */\n      dup4\n        /* \"#utility.yul\":7257:7275   */\n      add\n        /* \"#utility.yul\":7244:7276   */\n      calldataload\n        /* \"#utility.yul\":7303:7321   */\n      0xffffffffffffffff\n        /* \"#utility.yul\":7295:7301   */\n      dup2\n        /* \"#utility.yul\":7292:7322   */\n      gt\n        /* \"#utility.yul\":7289:7406   */\n      iszero\n      tag_163\n      jumpi\n        /* \"#utility.yul\":7325:7404   */\n      tag_164\n      tag_73\n      jump\t// in\n    tag_164:\n        /* \"#utility.yul\":7289:7406   */\n    tag_163:\n        /* \"#utility.yul\":7430:7493   */\n      tag_165\n        /* \"#utility.yul\":7485:7492   */\n      dup6\n        /* \"#utility.yul\":7476:7482   */\n      dup3\n        /* \"#utility.yul\":7465:7474   */\n      dup7\n        /* \"#utility.yul\":7461:7483   */\n      add\n        /* \"#utility.yul\":7430:7493   */\n      tag_82\n      jump\t// in\n    tag_165:\n        /* \"#utility.yul\":7420:7493   */\n      swap2\n      pop\n        /* \"#utility.yul\":7215:7503   */\n      pop\n        /* \"#utility.yul\":6676:7510   */\n      swap3\n      pop\n      swap3\n      swap1\n      pop\n      jump\t// out\n        /* \"#utility.yul\":7516:7696   */\n    tag_83:\n        /* \"#utility.yul\":7564:7641   */\n      0x4e487b7100000000000000000000000000000000000000000000000000000000\n        /* \"#utility.yul\":7561:7562   */\n      0x00\n        /* \"#utility.yul\":7554:7642   */\n      mstore\n        /* \"#utility.yul\":7661:7665   */\n      0x22\n        /* \"#utility.yul\":7658:7659   */\n      0x04\n        /* \"#utility.yul\":7651:7666   */\n      mstore\n        /* \"#utility.yul\":7685:7689   */\n      0x24\n        /* \"#utility.yul\":7682:7683   */\n      0x00\n        /* \"#utility.yul\":7675:7690   */\n      revert\n        /* \"#utility.yul\":7702:8022   */\n    tag_31:\n        /* \"#utility.yul\":7746:7752   */\n      0x00\n        /* \"#utility.yul\":7783:7784   */\n      0x02\n        /* \"#utility.yul\":7777:7781   */\n      dup3\n        /* \"#utility.yul\":7773:7785   */\n      div\n        /* \"#utility.yul\":7763:7785   */\n      swap1\n      pop\n        /* \"#utility.yul\":7830:7831   */\n      0x01\n        /* \"#utility.yul\":7824:7828   */\n      dup3\n        /* \"#utility.yul\":7820:7832   */\n      and\n        /* \"#utility.yul\":7851:7869   */\n      dup1\n        /* \"#utility.yul\":7841:7922   */\n      tag_168\n      jumpi\n        /* \"#utility.yul\":7907:7911   */\n      0x7f\n        /* \"#utility.yul\":7899:7905   */\n      dup3\n        /* \"#utility.yul\":7895:7912   */\n      and\n        /* \"#utility.yul\":7885:7912   */\n      swap2\n      pop\n        /* \"#utility.yul\":7841:7922   */\n    tag_168:\n        /* \"#utility.yul\":7969:7971   */\n      0x20\n        /* \"#utility.yul\":7961:7967   */\n      dup3\n        /* \"#utility.yul\":7958:7972   */\n      lt\n        /* \"#utility.yul\":7938:7956   */\n      dup2\n        /* \"#utility.yul\":7935:7973   */\n      sub\n        /* \"#utility.yul\":7932:8016   */\n      tag_169\n      jumpi\n        /* \"#utility.yul\":7988:8006   */\n      tag_170\n      tag_83\n      jump\t// in\n    tag_170:\n        /* \"#utility.yul\":7932:8016   */\n    tag_169:\n        /* \"#utility.yul\":7753:8022   */\n      pop\n        /* \"#utility.yul\":7702:8022   */\n      swap2\n      swap1\n      pop\n      jump\t// out\n        /* \"#utility.yul\":8028:8176   */\n    tag_84:\n        /* \"#utility.yul\":8130:8141   */\n      0x00\n        /* \"#utility.yul\":8167:8170   */\n      dup2\n        /* \"#utility.yul\":8152:8170   */\n      swap1\n      pop\n        /* \"#utility.yul\":8028:8176   */\n      swap3\n      swap2\n      pop\n      pop\n      jump\t// out\n        /* \"#utility.yul\":8182:8559   */\n    tag_85:\n        /* \"#utility.yul\":8288:8291   */\n      0x00\n        /* \"#utility.yul\":8316:8355   */\n      tag_173\n        /* \"#utility.yul\":8349:8354   */\n      dup3\n        /* \"#utility.yul\":8316:8355   */\n      tag_61\n      jump\t// in\n    tag_173:\n        /* \"#utility.yul\":8371:8460   */\n      tag_174\n        /* \"#utility.yul\":8453:8459   */\n      dup2\n        /* \"#utility.yul\":8448:8451   */\n      dup6\n        /* \"#utility.yul\":8371:8460   */\n      tag_84\n      jump\t// in\n    tag_174:\n        /* \"#utility.yul\":8364:8460   */\n      swap4\n      pop\n        /* \"#utility.yul\":8469:8521   */\n      tag_175\n        /* \"#utility.yul\":8514:8520   */\n      dup2\n        /* \"#utility.yul\":8509:8512   */\n      dup6\n        /* \"#utility.yul\":8502:8506   */\n      0x20\n        /* \"#utility.yul\":8495:8500   */\n      dup7\n        /* \"#utility.yul\":8491:8507   */\n      add\n        /* \"#utility.yul\":8469:8521   */\n      tag_63\n      jump\t// in\n    tag_175:\n        /* \"#utility.yul\":8546:8552   */\n      dup1\n        /* \"#utility.yul\":8541:8544   */\n      dup5\n        /* \"#utility.yul\":8537:8553   */\n      add\n        /* \"#utility.yul\":8530:8553   */\n      swap2\n      pop\n        /* \"#utility.yul\":8292:8559   */\n      pop\n        /* \"#utility.yul\":8182:8559   */\n      swap3\n      swap2\n      pop\n      pop\n      jump\t// out\n        /* \"#utility.yul\":8565:8840   */\n    tag_40:\n        /* \"#utility.yul\":8697:8700   */\n      0x00\n        /* \"#utility.yul\":8719:8814   */\n      tag_177\n        /* \"#utility.yul\":8810:8813   */\n      dup3\n        /* \"#utility.yul\":8801:8807   */\n      dup5\n        /* \"#utility.yul\":8719:8814   */\n      tag_85\n      jump\t// in\n    tag_177:\n        /* \"#utility.yul\":8712:8814   */\n      swap2\n      pop\n        /* \"#utility.yul\":8831:8834   */\n      dup2\n        /* \"#utility.yul\":8824:8834   */\n      swap1\n      pop\n        /* \"#utility.yul\":8565:8840   */\n      swap3\n      swap2\n      pop\n      pop\n      jump\t// out\n        /* \"#utility.yul\":8846:9026   */\n    tag_86:\n        /* \"#utility.yul\":8894:8971   */\n      0x4e487b7100000000000000000000000000000000000000000000000000000000\n        /* \"#utility.yul\":8891:8892   */\n      0x00\n        /* \"#utility.yul\":8884:8972   */\n      mstore\n        /* \"#utility.yul\":8991:8995   */\n      0x11\n        /* \"#utility.yul\":8988:8989   */\n      0x04\n        /* \"#utility.yul\":8981:8996   */\n      mstore\n        /* \"#utility.yul\":9015:9019   */\n      0x24\n        /* \"#utility.yul\":9012:9013   */\n      0x00\n        /* \"#utility.yul\":9005:9020   */\n      revert\n        /* \"#utility.yul\":9032:9557   */\n    tag_47:\n        /* \"#utility.yul\":9071:9074   */\n      0x00\n        /* \"#utility.yul\":9090:9109   */\n      tag_180\n        /* \"#utility.yul\":9107:9108   */\n      dup3\n        /* \"#utility.yul\":9090:9109   */\n      tag_69\n      jump\t// in\n    tag_180:\n        /* \"#utility.yul\":9085:9109   */\n      swap2\n      pop\n        /* \"#utility.yul\":9123:9142   */\n      tag_181\n        /* \"#utility.yul\":9140:9141   */\n      dup4\n        /* \"#utility.yul\":9123:9142   */\n      tag_69\n      jump\t// in\n    tag_181:\n        /* \"#utility.yul\":9118:9142   */\n      swap3\n      pop\n        /* \"#utility.yul\":9311:9312   */\n      dup2\n        /* \"#utility.yul\":9243:9309   */\n      0x7fffffffffffffffffffffffffffffffffffffffffffffffffffffffffffffff\n        /* \"#utility.yul\":9239:9313   */\n      sub\n        /* \"#utility.yul\":9236:9237   */\n      dup4\n        /* \"#utility.yul\":9232:9314   */\n      sgt\n        /* \"#utility.yul\":9227:9228   */\n      0x00\n        /* \"#utility.yul\":9224:9225   */\n      dup4\n        /* \"#utility.yul\":9220:9229   */\n      slt\n        /* \"#utility.yul\":9213:9230   */\n      iszero\n        /* \"#utility.yul\":9209:9315   */\n      and\n        /* \"#utility.yul\":9206:9338   */\n      iszero\n      tag_182\n      jumpi\n        /* \"#utility.yul\":9318:9336   */\n      tag_183\n      tag_86\n      jump\t// in\n    tag_183:\n        /* \"#utility.yul\":9206:9338   */\n    tag_182:\n        /* \"#utility.yul\":9498:9499   */\n      dup2\n        /* \"#utility.yul\":9430:9496   */\n      0x8000000000000000000000000000000000000000000000000000000000000000\n        /* \"#utility.yul\":9426:9500   */\n      sub\n        /* \"#utility.yul\":9423:9424   */\n      dup4\n        /* \"#utility.yul\":9419:9501   */\n      slt\n        /* \"#utility.yul\":9415:9416   */\n      0x00\n        /* \"#utility.yul\":9412:9413   */\n      dup4\n        /* \"#utility.yul\":9408:9417   */\n      slt\n        /* \"#utility.yul\":9404:9502   */\n      and\n        /* \"#utility.yul\":9401:9525   */\n      iszero\n      tag_184\n      jumpi\n        /* \"#utility.yul\":9505:9523   */\n      tag_185\n      tag_86\n      jump\t// in\n    tag_185:\n        /* \"#utility.yul\":9401:9525   */\n    tag_184:\n        /* \"#utility.yul\":9549:9550   */\n      dup3\n        /* \"#utility.yul\":9546:9547   */\n      dup3\n        /* \"#utility.yul\":9542:9551   */\n      add\n        /* \"#utility.yul\":9535:9551   */\n      swap1\n      pop\n        /* \"#utility.yul\":9032:9557   */\n      swap3\n      swap2\n      pop\n      pop\n      jump\t// out\n\n    auxdata: 0xa2646970667358221220055f69d52386c453d9b21f4ebff07b7b28af5f532f9f005e74d526bfac6e899a64736f6c634300080d0033\n}\n",
    "bytecode": {
      "linkReferences": {},
      "object": "608060405234801561001057600080fd5b5033600260006101000a81548173ffffffffffffffffffffffffffffffffffffffff021916908373ffffffffffffffffffffffffffffffffffffffff1602179055506000600381905550610948806100696000396000f3fe608060405234801561001057600080fd5b506004361061004c5760003560e01c806306661abd1461005157806342169e481461006f5780634d6f05fa1461008d578063f641090c146100bd575b600080fd5b6100596100d9565b604051610066919061053c565b60405180910390f35b61007761020c565b6040516100849190610577565b60405180910390f35b6100a760048036038101906100a291906106db565b610212565b6040516100b49190610577565b60405180910390f35b6100d760048036038101906100d29190610724565b610240565b005b6060600260009054906101000a900473ffffffffffffffffffffffffffffffffffffffff1673ffffffffffffffffffffffffffffffffffffffff163373ffffffffffffffffffffffffffffffffffffffff161461013557600080fd5b6001805480602002602001604051908101604052809291908181526020016000905b82821015610203578382906000526020600020018054610176906107cb565b80601f01602080910402602001604051908101604052809291908181526020018280546101a2906107cb565b80156101ef5780601f106101c4576101008083540402835291602001916101ef565b820191906000526020600020905b8154815290600101906020018083116101d257829003601f168201915b505050505081526020019060010190610157565b50505050905090565b60035481565b6000818051602081018201805184825260208301602085012081835280955050505050506000915090505481565b600260009054906101000a900473ffffffffffffffffffffffffffffffffffffffff1673ffffffffffffffffffffffffffffffffffffffff163373ffffffffffffffffffffffffffffffffffffffff161461029a57600080fd5b600080836040516102ab9190610838565b9081526020016040518091039020540361033a576001819080600181540180825580915050600190039060005260206000200160009091909190915090805190602001906102fa92919061033e565b50600160008360405161030d9190610838565b908152602001604051809103902081905550600160036000828254610332919061087e565b925050819055505b5050565b82805461034a906107cb565b90600052602060002090601f01602090048101928261036c57600085556103b3565b82601f1061038557805160ff19168380011785556103b3565b828001600101855582156103b3579182015b828111156103b2578251825591602001919060010190610397565b5b5090506103c091906103c4565b5090565b5b808211156103dd5760008160009055506001016103c5565b5090565b600081519050919050565b600082825260208201905092915050565b6000819050602082019050919050565b600081519050919050565b600082825260208201905092915050565b60005b8381101561044757808201518184015260208101905061042c565b83811115610456576000848401525b50505050565b6000601f19601f8301169050919050565b60006104788261040d565b6104828185610418565b9350610492818560208601610429565b61049b8161045c565b840191505092915050565b60006104b2838361046d565b905092915050565b6000602082019050919050565b60006104d2826103e1565b6104dc81856103ec565b9350836020820285016104ee856103fd565b8060005b8581101561052a578484038952815161050b85826104a6565b9450610516836104ba565b925060208a019950506001810190506104f2565b50829750879550505050505092915050565b6000602082019050818103600083015261055681846104c7565b905092915050565b6000819050919050565b6105718161055e565b82525050565b600060208201905061058c6000830184610568565b92915050565b6000604051905090565b600080fd5b600080fd5b600080fd5b600080fd5b7f4e487b7100000000000000000000000000000000000000000000000000000000600052604160045260246000fd5b6105e88261045c565b810181811067ffffffffffffffff82111715610607576106066105b0565b5b80604052505050565b600061061a610592565b905061062682826105df565b919050565b600067ffffffffffffffff821115610646576106456105b0565b5b61064f8261045c565b9050602081019050919050565b82818337600083830152505050565b600061067e6106798461062b565b610610565b90508281526020810184848401111561069a576106996105ab565b5b6106a584828561065c565b509392505050565b600082601f8301126106c2576106c16105a6565b5b81356106d284826020860161066b565b91505092915050565b6000602082840312156106f1576106f061059c565b5b600082013567ffffffffffffffff81111561070f5761070e6105a1565b5b61071b848285016106ad565b91505092915050565b6000806040838503121561073b5761073a61059c565b5b600083013567ffffffffffffffff811115610759576107586105a1565b5b610765858286016106ad565b925050602083013567ffffffffffffffff811115610786576107856105a1565b5b610792858286016106ad565b9150509250929050565b7f4e487b7100000000000000000000000000000000000000000000000000000000600052602260045260246000fd5b600060028204905060018216806107e357607f821691505b6020821081036107f6576107f561079c565b5b50919050565b600081905092915050565b60006108128261040d565b61081c81856107fc565b935061082c818560208601610429565b80840191505092915050565b60006108448284610807565b915081905092915050565b7f4e487b7100000000000000000000000000000000000000000000000000000000600052601160045260246000fd5b60006108898261055e565b91506108948361055e565b9250817f7fffffffffffffffffffffffffffffffffffffffffffffffffffffffffffffff038313600083121516156108cf576108ce61084f565b5b817f80000000000000000000000000000000000000000000000000000000000000000383126000831216156109075761090661084f565b5b82820190509291505056fea2646970667358221220055f69d52386c453d9b21f4ebff07b7b28af5f532f9f005e74d526bfac6e899a64736f6c634300080d0033",
      "opcodes": "PUSH1 0x80 PUSH1 0x40 MSTORE CALLVALUE DUP1 ISZERO PUSH2 0x10 JUMPI PUSH1 0x0 DUP1 REVERT JUMPDEST POP CALLER PUSH1 0x2 PUSH1 0x0 PUSH2 0x100 EXP DUP2 SLOAD DUP2 PUSH20 0xFFFFFFFFFFFFFFFFFFFFFFFFFFFFFFFFFFFFFFFF MUL NOT AND SWAP1 DUP4 PUSH20 0xFFFFFFFFFFFFFFFFFFFFFFFFFFFFFFFFFFFFFFFF AND MUL OR SWAP1 SSTORE POP PUSH1 0x0 PUSH1 0x3 DUP2 SWAP1 SSTORE POP PUSH2 0x948 DUP1 PUSH2 0x69 PUSH1 0x0 CODECOPY PUSH1 0x0 RETURN INVALID PUSH1 0x80 PUSH1 0x40 MSTORE CALLVALUE DUP1 ISZERO PUSH2 0x10 JUMPI PUSH1 0x0 DUP1 REVERT JUMPDEST POP PUSH1 0x4 CALLDATASIZE LT PUSH2 0x4C JUMPI PUSH1 0x0 CALLDATALOAD PUSH1 0xE0 SHR DUP1 PUSH4 0x6661ABD EQ PUSH2 0x51 JUMPI DUP1 PUSH4 0x42169E48 EQ PUSH2 0x6F JUMPI DUP1 PUSH4 0x4D6F05FA EQ PUSH2 0x8D JUMPI DUP1 PUSH4 0xF641090C EQ PUSH2 0xBD JUMPI JUMPDEST PUSH1 0x0 DUP1 REVERT JUMPDEST PUSH2 0x59 PUSH2 0xD9 JUMP JUMPDEST PUSH1 0x40 MLOAD PUSH2 0x66 SWAP2 SWAP1 PUSH2 0x53C JUMP JUMPDEST PUSH1 0x40 MLOAD DUP1 SWAP2 SUB SWAP1 RETURN JUMPDEST PUSH2 0x77 PUSH2 0x20C JUMP JUMPDEST PUSH1 0x40 MLOAD PUSH2 0x84 SWAP2 SWAP1 PUSH2 0x577 JUMP JUMPDEST PUSH1 0x40 MLOAD DUP1 SWAP2 SUB SWAP1 RETURN JUMPDEST PUSH2 0xA7 PUSH1 0x4 DUP1 CALLDATASIZE SUB DUP2 ADD SWAP1 PUSH2 0xA2 SWAP2 SWAP1 PUSH2 0x6DB JUMP JUMPDEST PUSH2 0x212 JUMP JUMPDEST PUSH1 0x40 MLOAD PUSH2 0xB4 SWAP2 SWAP1 PUSH2 0x577 JUMP JUMPDEST PUSH1 0x40 MLOAD DUP1 SWAP2 SUB SWAP1 RETURN JUMPDEST PUSH2 0xD7 PUSH1 0x4 DUP1 CALLDATASIZE SUB DUP2 ADD SWAP1 PUSH2 0xD2 SWAP2 SWAP1 PUSH2 0x724 JUMP JUMPDEST PUSH2 0x240 JUMP JUMPDEST STOP JUMPDEST PUSH1 0x60 PUSH1 0x2 PUSH1 0x0 SWAP1 SLOAD SWAP1 PUSH2 0x100 EXP SWAP1 DIV PUSH20 0xFFFFFFFFFFFFFFFFFFFFFFFFFFFFFFFFFFFFFFFF AND PUSH20 0xFFFFFFFFFFFFFFFFFFFFFFFFFFFFFFFFFFFFFFFF AND CALLER PUSH20 0xFFFFFFFFFFFFFFFFFFFFFFFFFFFFFFFFFFFFFFFF AND EQ PUSH2 0x135 JUMPI PUSH1 0x0 DUP1 REVERT JUMPDEST PUSH1 0x1 DUP1 SLOAD DUP1 PUSH1 0x20 MUL PUSH1 0x20 ADD PUSH1 0x40 MLOAD SWAP1 DUP2 ADD PUSH1 0x40 MSTORE DUP1 SWAP3 SWAP2 SWAP1 DUP2 DUP2 MSTORE PUSH1 0x20 ADD PUSH1 0x0 SWAP1 JUMPDEST DUP3 DUP3 LT ISZERO PUSH2 0x203 JUMPI DUP4 DUP3 SWAP1 PUSH1 0x0 MSTORE PUSH1 0x20 PUSH1 0x0 KECCAK256 ADD DUP1 SLOAD PUSH2 0x176 SWAP1 PUSH2 0x7CB JUMP JUMPDEST DUP1 PUSH1 0x1F ADD PUSH1 0x20 DUP1 SWAP2 DIV MUL PUSH1 0x20 ADD PUSH1 0x40 MLOAD SWAP1 DUP2 ADD PUSH1 0x40 MSTORE DUP1 SWAP3 SWAP2 SWAP1 DUP2 DUP2 MSTORE PUSH1 0x20 ADD DUP3 DUP1 SLOAD PUSH2 0x1A2 SWAP1 PUSH2 0x7CB JUMP JUMPDEST DUP1 ISZERO PUSH2 0x1EF JUMPI DUP1 PUSH1 0x1F LT PUSH2 0x1C4 JUMPI PUSH2 0x100 DUP1 DUP4 SLOAD DIV MUL DUP4 MSTORE SWAP2 PUSH1 0x20 ADD SWAP2 PUSH2 0x1EF JUMP JUMPDEST DUP3 ADD SWAP2 SWAP1 PUSH1 0x0 MSTORE PUSH1 0x20 PUSH1 0x0 KECCAK256 SWAP1 JUMPDEST DUP2 SLOAD DUP2 MSTORE SWAP1 PUSH1 0x1 ADD SWAP1 PUSH1 0x20 ADD DUP1 DUP4 GT PUSH2 0x1D2 JUMPI DUP3 SWAP1 SUB PUSH1 0x1F AND DUP3 ADD SWAP2 JUMPDEST POP POP POP POP POP DUP2 MSTORE PUSH1 0x20 ADD SWAP1 PUSH1 0x1 ADD SWAP1 PUSH2 0x157 JUMP JUMPDEST POP POP POP POP SWAP1 POP SWAP1 JUMP JUMPDEST PUSH1 0x3 SLOAD DUP2 JUMP JUMPDEST PUSH1 0x0 DUP2 DUP1 MLOAD PUSH1 0x20 DUP2 ADD DUP3 ADD DUP1 MLOAD DUP5 DUP3 MSTORE PUSH1 0x20 DUP4 ADD PUSH1 0x20 DUP6 ADD KECCAK256 DUP2 DUP4 MSTORE DUP1 SWAP6 POP POP POP POP POP POP PUSH1 0x0 SWAP2 POP SWAP1 POP SLOAD DUP2 JUMP JUMPDEST PUSH1 0x2 PUSH1 0x0 SWAP1 SLOAD SWAP1 PUSH2 0x100 EXP SWAP1 DIV PUSH20 0xFFFFFFFFFFFFFFFFFFFFFFFFFFFFFFFFFFFFFFFF AND PUSH20 0xFFFFFFFFFFFFFFFFFFFFFFFFFFFFFFFFFFFFFFFF AND CALLER PUSH20 0xFFFFFFFFFFFFFFFFFFFFFFFFFFFFFFFFFFFFFFFF AND EQ PUSH2 0x29A JUMPI PUSH1 0x0 DUP1 REVERT JUMPDEST PUSH1 0x0 DUP1 DUP4 PUSH1 0x40 MLOAD PUSH2 0x2AB SWAP2 SWAP1 PUSH2 0x838 JUMP JUMPDEST SWAP1 DUP2 MSTORE PUSH1 0x20 ADD PUSH1 0x40 MLOAD DUP1 SWAP2 SUB SWAP1 KECCAK256 SLOAD SUB PUSH2 0x33A JUMPI PUSH1 0x1 DUP2 SWAP1 DUP1 PUSH1 0x1 DUP2 SLOAD ADD DUP1 DUP3 SSTORE DUP1 SWAP2 POP POP PUSH1 0x1 SWAP1 SUB SWAP1 PUSH1 0x0 MSTORE PUSH1 0x20 PUSH1 0x0 KECCAK256 ADD PUSH1 0x0 SWAP1 SWAP2 SWAP1 SWAP2 SWAP1 SWAP2 POP SWAP1 DUP1 MLOAD SWAP1 PUSH1 0x20 ADD SWAP1 PUSH2 0x2FA SWAP3 SWAP2 SWAP1 PUSH2 0x33E JUMP JUMPDEST POP PUSH1 0x1 PUSH1 0x0 DUP4 PUSH1 0x40 MLOAD PUSH2 0x30D SWAP2 SWAP1 PUSH2 0x838 JUMP JUMPDEST SWAP1 DUP2 MSTORE PUSH1 0x20 ADD PUSH1 0x40 MLOAD DUP1 SWAP2 SUB SWAP1 KECCAK256 DUP2 SWAP1 SSTORE POP PUSH1 0x1 PUSH1 0x3 PUSH1 0x0 DUP3 DUP3 SLOAD PUSH2 0x332 SWAP2 SWAP1 PUSH2 0x87E JUMP JUMPDEST SWAP3 POP POP DUP2 SWAP1 SSTORE POP JUMPDEST POP POP JUMP JUMPDEST DUP3 DUP1 SLOAD PUSH2 0x34A SWAP1 PUSH2 0x7CB JUMP JUMPDEST SWAP1 PUSH1 0x0 MSTORE PUSH1 0x20 PUSH1 0x0 KECCAK256 SWAP1 PUSH1 0x1F ADD PUSH1 0x20 SWAP1 DIV DUP2 ADD SWAP3 DUP3 PUSH2 0x36C JUMPI PUSH1 0x0 DUP6 SSTORE PUSH2 0x3B3 JUMP JUMPDEST DUP3 PUSH1 0x1F LT PUSH2 0x385 JUMPI DUP1 MLOAD PUSH1 0xFF NOT AND DUP4 DUP1 ADD OR DUP6 SSTORE PUSH2 0x3B3 JUMP JUMPDEST DUP3 DUP1 ADD PUSH1 0x1 ADD DUP6 SSTORE DUP3 ISZERO PUSH2 0x3B3 JUMPI SWAP2 DUP3 ADD JUMPDEST DUP3 DUP2 GT ISZERO PUSH2 0x3B2 JUMPI DUP3 MLOAD DUP3 SSTORE SWAP2 PUSH1 0x20 ADD SWAP2 SWAP1 PUSH1 0x1 ADD SWAP1 PUSH2 0x397 JUMP JUMPDEST JUMPDEST POP SWAP1 POP PUSH2 0x3C0 SWAP2 SWAP1 PUSH2 0x3C4 JUMP JUMPDEST POP SWAP1 JUMP JUMPDEST JUMPDEST DUP1 DUP3 GT ISZERO PUSH2 0x3DD JUMPI PUSH1 0x0 DUP2 PUSH1 0x0 SWAP1 SSTORE POP PUSH1 0x1 ADD PUSH2 0x3C5 JUMP JUMPDEST POP SWAP1 JUMP JUMPDEST PUSH1 0x0 DUP2 MLOAD SWAP1 POP SWAP2 SWAP1 POP JUMP JUMPDEST PUSH1 0x0 DUP3 DUP3 MSTORE PUSH1 0x20 DUP3 ADD SWAP1 POP SWAP3 SWAP2 POP POP JUMP JUMPDEST PUSH1 0x0 DUP2 SWAP1 POP PUSH1 0x20 DUP3 ADD SWAP1 POP SWAP2 SWAP1 POP JUMP JUMPDEST PUSH1 0x0 DUP2 MLOAD SWAP1 POP SWAP2 SWAP1 POP JUMP JUMPDEST PUSH1 0x0 DUP3 DUP3 MSTORE PUSH1 0x20 DUP3 ADD SWAP1 POP SWAP3 SWAP2 POP POP JUMP JUMPDEST PUSH1 0x0 JUMPDEST DUP4 DUP2 LT ISZERO PUSH2 0x447 JUMPI DUP1 DUP3 ADD MLOAD DUP2 DUP5 ADD MSTORE PUSH1 0x20 DUP2 ADD SWAP1 POP PUSH2 0x42C JUMP JUMPDEST DUP4 DUP2 GT ISZERO PUSH2 0x456 JUMPI PUSH1 0x0 DUP5 DUP5 ADD MSTORE JUMPDEST POP POP POP POP JUMP JUMPDEST PUSH1 0x0 PUSH1 0x1F NOT PUSH1 0x1F DUP4 ADD AND SWAP1 POP SWAP2 SWAP1 POP JUMP JUMPDEST PUSH1 0x0 PUSH2 0x478 DUP3 PUSH2 0x40D JUMP JUMPDEST PUSH2 0x482 DUP2 DUP6 PUSH2 0x418 JUMP JUMPDEST SWAP4 POP PUSH2 0x492 DUP2 DUP6 PUSH1 0x20 DUP7 ADD PUSH2 0x429 JUMP JUMPDEST PUSH2 0x49B DUP2 PUSH2 0x45C JUMP JUMPDEST DUP5 ADD SWAP2 POP POP SWAP3 SWAP2 POP POP JUMP JUMPDEST PUSH1 0x0 PUSH2 0x4B2 DUP4 DUP4 PUSH2 0x46D JUMP JUMPDEST SWAP1 POP SWAP3 SWAP2 POP POP JUMP JUMPDEST PUSH1 0x0 PUSH1 0x20 DUP3 ADD SWAP1 POP SWAP2 SWAP1 POP JUMP JUMPDEST PUSH1 0x0 PUSH2 0x4D2 DUP3 PUSH2 0x3E1 JUMP JUMPDEST PUSH2 0x4DC DUP2 DUP6 PUSH2 0x3EC JUMP JUMPDEST SWAP4 POP DUP4 PUSH1 0x20 DUP3 MUL DUP6 ADD PUSH2 0x4EE DUP6 PUSH2 0x3FD JUMP JUMPDEST DUP1 PUSH1 0x0 JUMPDEST DUP6 DUP2 LT ISZERO PUSH2 0x52A JUMPI DUP5 DUP5 SUB DUP10 MSTORE DUP2 MLOAD PUSH2 0x50B DUP6 DUP3 PUSH2 0x4A6 JUMP JUMPDEST SWAP5 POP PUSH2 0x516 DUP4 PUSH2 0x4BA JUMP JUMPDEST SWAP3 POP PUSH1 0x20 DUP11 ADD SWAP10 POP POP PUSH1 0x1 DUP2 ADD SWAP1 POP PUSH2 0x4F2 JUMP JUMPDEST POP DUP3 SWAP8 POP DUP8 SWAP6 POP POP POP POP POP POP SWAP3 SWAP2 POP POP JUMP JUMPDEST PUSH1 0x0 PUSH1 0x20 DUP3 ADD SWAP1 POP DUP2 DUP2 SUB PUSH1 0x0 DUP4 ADD MSTORE PUSH2 0x556 DUP2 DUP5 PUSH2 0x4C7 JUMP JUMPDEST SWAP1 POP SWAP3 SWAP2 POP POP JUMP JUMPDEST PUSH1 0x0 DUP2 SWAP1 POP SWAP2 SWAP1 POP JUMP JUMPDEST PUSH2 0x571 DUP2 PUSH2 0x55E JUMP JUMPDEST DUP3 MSTORE POP POP JUMP JUMPDEST PUSH1 0x0 PUSH1 0x20 DUP3 ADD SWAP1 POP PUSH2 0x58C PUSH1 0x0 DUP4 ADD DUP5 PUSH2 0x568 JUMP JUMPDEST SWAP3 SWAP2 POP POP JUMP JUMPDEST PUSH1 0x0 PUSH1 0x40 MLOAD SWAP1 POP SWAP1 JUMP JUMPDEST PUSH1 0x0 DUP1 REVERT JUMPDEST PUSH1 0x0 DUP1 REVERT JUMPDEST PUSH1 0x0 DUP1 REVERT JUMPDEST PUSH1 0x0 DUP1 REVERT JUMPDEST PUSH32 0x4E487B7100000000000000000000000000000000000000000000000000000000 PUSH1 0x0 MSTORE PUSH1 0x41 PUSH1 0x4 MSTORE PUSH1 0x24 PUSH1 0x0 REVERT JUMPDEST PUSH2 0x5E8 DUP3 PUSH2 0x45C JUMP JUMPDEST DUP2 ADD DUP2 DUP2 LT PUSH8 0xFFFFFFFFFFFFFFFF DUP3 GT OR ISZERO PUSH2 0x607 JUMPI PUSH2 0x606 PUSH2 0x5B0 JUMP JUMPDEST JUMPDEST DUP1 PUSH1 0x40 MSTORE POP POP POP JUMP JUMPDEST PUSH1 0x0 PUSH2 0x61A PUSH2 0x592 JUMP JUMPDEST SWAP1 POP PUSH2 0x626 DUP3 DUP3 PUSH2 0x5DF JUMP JUMPDEST SWAP2 SWAP1 POP JUMP JUMPDEST PUSH1 0x0 PUSH8 0xFFFFFFFFFFFFFFFF DUP3 GT ISZERO PUSH2 0x646 JUMPI PUSH2 0x645 PUSH2 0x5B0 JUMP JUMPDEST JUMPDEST PUSH2 0x64F DUP3 PUSH2 0x45C JUMP JUMPDEST SWAP1 POP PUSH1 0x20 DUP2 ADD SWAP1 POP SWAP2 SWAP1 POP JUMP JUMPDEST DUP3 DUP2 DUP4 CALLDATACOPY PUSH1 0x0 DUP4 DUP4 ADD MSTORE POP POP POP JUMP JUMPDEST PUSH1 0x0 PUSH2 0x67E PUSH2 0x679 DUP5 PUSH2 0x62B JUMP JUMPDEST PUSH2 0x610 JUMP JUMPDEST SWAP1 POP DUP3 DUP2 MSTORE PUSH1 0x20 DUP2 ADD DUP5 DUP5 DUP5 ADD GT ISZERO PUSH2 0x69A JUMPI PUSH2 0x699 PUSH2 0x5AB JUMP JUMPDEST JUMPDEST PUSH2 0x6A5 DUP5 DUP3 DUP6 PUSH2 0x65C JUMP JUMPDEST POP SWAP4 SWAP3 POP POP POP JUMP JUMPDEST PUSH1 0x0 DUP3 PUSH1 0x1F DUP4 ADD SLT PUSH2 0x6C2 JUMPI PUSH2 0x6C1 PUSH2 0x5A6 JUMP JUMPDEST JUMPDEST DUP2 CALLDATALOAD PUSH2 0x6D2 DUP5 DUP3 PUSH1 0x20 DUP7 ADD PUSH2 0x66B JUMP JUMPDEST SWAP2 POP POP SWAP3 SWAP2 POP POP JUMP JUMPDEST PUSH1 0x0 PUSH1 0x20 DUP3 DUP5 SUB SLT ISZERO PUSH2 0x6F1 JUMPI PUSH2 0x6F0 PUSH2 0x59C JUMP JUMPDEST JUMPDEST PUSH1 0x0 DUP3 ADD CALLDATALOAD PUSH8 0xFFFFFFFFFFFFFFFF DUP2 GT ISZERO PUSH2 0x70F JUMPI PUSH2 0x70E PUSH2 0x5A1 JUMP JUMPDEST JUMPDEST PUSH2 0x71B DUP5 DUP3 DUP6 ADD PUSH2 0x6AD JUMP JUMPDEST SWAP2 POP POP SWAP3 SWAP2 POP POP JUMP JUMPDEST PUSH1 0x0 DUP1 PUSH1 0x40 DUP4 DUP6 SUB SLT ISZERO PUSH2 0x73B JUMPI PUSH2 0x73A PUSH2 0x59C JUMP JUMPDEST JUMPDEST PUSH1 0x0 DUP4 ADD CALLDATALOAD PUSH8 0xFFFFFFFFFFFFFFFF DUP2 GT ISZERO PUSH2 0x759 JUMPI PUSH2 0x758 PUSH2 0x5A1 JUMP JUMPDEST JUMPDEST PUSH2 0x765 DUP6 DUP3 DUP7 ADD PUSH2 0x6AD JUMP JUMPDEST SWAP3 POP POP PUSH1 0x20 DUP4 ADD CALLDATALOAD PUSH8 0xFFFFFFFFFFFFFFFF DUP2 GT ISZERO PUSH2 0x786 JUMPI PUSH2 0x785 PUSH2 0x5A1 JUMP JUMPDEST JUMPDEST PUSH2 0x792 DUP6 DUP3 DUP7 ADD PUSH2 0x6AD JUMP JUMPDEST SWAP2 POP POP SWAP3 POP SWAP3 SWAP1 POP JUMP JUMPDEST PUSH32 0x4E487B7100000000000000000000000000000000000000000000000000000000 PUSH1 0x0 MSTORE PUSH1 0x22 PUSH1 0x4 MSTORE PUSH1 0x24 PUSH1 0x0 REVERT JUMPDEST PUSH1 0x0 PUSH1 0x2 DUP3 DIV SWAP1 POP PUSH1 0x1 DUP3 AND DUP1 PUSH2 0x7E3 JUMPI PUSH1 0x7F DUP3 AND SWAP2 POP JUMPDEST PUSH1 0x20 DUP3 LT DUP2 SUB PUSH2 0x7F6 JUMPI PUSH2 0x7F5 PUSH2 0x79C JUMP JUMPDEST JUMPDEST POP SWAP2 SWAP1 POP JUMP JUMPDEST PUSH1 0x0 DUP2 SWAP1 POP SWAP3 SWAP2 POP POP JUMP JUMPDEST PUSH1 0x0 PUSH2 0x812 DUP3 PUSH2 0x40D JUMP JUMPDEST PUSH2 0x81C DUP2 DUP6 PUSH2 0x7FC JUMP JUMPDEST SWAP4 POP PUSH2 0x82C DUP2 DUP6 PUSH1 0x20 DUP7 ADD PUSH2 0x429 JUMP JUMPDEST DUP1 DUP5 ADD SWAP2 POP POP SWAP3 SWAP2 POP POP JUMP JUMPDEST PUSH1 0x0 PUSH2 0x844 DUP3 DUP5 PUSH2 0x807 JUMP JUMPDEST SWAP2 POP DUP2 SWAP1 POP SWAP3 SWAP2 POP POP JUMP JUMPDEST PUSH32 0x4E487B7100000000000000000000000000000000000000000000000000000000 PUSH1 0x0 MSTORE PUSH1 0x11 PUSH1 0x4 MSTORE PUSH1 0x24 PUSH1 0x0 REVERT JUMPDEST PUSH1 0x0 PUSH2 0x889 DUP3 PUSH2 0x55E JUMP JUMPDEST SWAP2 POP PUSH2 0x894 DUP4 PUSH2 0x55E JUMP JUMPDEST SWAP3 POP DUP2 PUSH32 0x7FFFFFFFFFFFFFFFFFFFFFFFFFFFFFFFFFFFFFFFFFFFFFFFFFFFFFFFFFFFFFFF SUB DUP4 SGT PUSH1 0x0 DUP4 SLT ISZERO AND ISZERO PUSH2 0x8CF JUMPI PUSH2 0x8CE PUSH2 0x84F JUMP JUMPDEST JUMPDEST DUP2 PUSH32 0x8000000000000000000000000000000000000000000000000000000000000000 SUB DUP4 SLT PUSH1 0x0 DUP4 SLT AND ISZERO PUSH2 0x907 JUMPI PUSH2 0x906 PUSH2 0x84F JUMP JUMPDEST JUMPDEST DUP3 DUP3 ADD SWAP1 POP SWAP3 SWAP2 POP POP JUMP INVALID LOG2 PUSH5 0x6970667358 0x22 SLT KECCAK256 SDIV 0x5F PUSH10 0xD52386C453D9B21F4EBF CREATE PUSH28 0x7B28AF5F532F9F005E74D526BFAC6E899A64736F6C634300080D0033 "
    },
    "gasEstimates": {
      "creation": {
        "codeDepositCost": "475200",
        "executionCost": "29791",
        "totalCost": "504991"
      },
      "external": {
        "count()": "infinite",
        "store(string,string)": "infinite",
        "voterCount()": "2429",
        "voterlist(string)": "infinite"
      }
    },
    "methodIdentifiers": {
      "count()": "06661abd",
      "store(string,string)": "f641090c",
      "voterCount()": "42169e48",
      "voterlist(string)": "4d6f05fa"
    }
  },
  "storageLayout": {
    "storage": [
      {
        "astId": 6,
        "contract": "ElectionContract.sol:Storage",
        "label": "voterlist",
        "offset": 0,
        "slot": "0",
        "type": "t_mapping(t_string_memory_ptr,t_int256)"
      },
      {
        "astId": 9,
        "contract": "ElectionContract.sol:Storage",
        "label": "ballotlist",
        "offset": 0,
        "slot": "1",
        "type": "t_array(t_string_storage)dyn_storage"
      },
      {
        "astId": 11,
        "contract": "ElectionContract.sol:Storage",
        "label": "owner",
        "offset": 0,
        "slot": "2",
        "type": "t_address"
      },
      {
        "astId": 24,
        "contract": "ElectionContract.sol:Storage",
        "label": "voterCount",
        "offset": 0,
        "slot": "3",
        "type": "t_int256"
      }
    ],
    "types": {
      "t_address": {
        "encoding": "inplace",
        "label": "address",
        "numberOfBytes": "20"
      },
      "t_array(t_string_storage)dyn_storage": {
        "base": "t_string_storage",
        "encoding": "dynamic_array",
        "label": "string[]",
        "numberOfBytes": "32"
      },
      "t_int256": {
        "encoding": "inplace",
        "label": "int256",
        "numberOfBytes": "32"
      },
      "t_mapping(t_string_memory_ptr,t_int256)": {
        "encoding": "mapping",
        "key": "t_string_memory_ptr",
        "label": "mapping(string => int256)",
        "numberOfBytes": "32",
        "value": "t_int256"
      },
      "t_string_memory_ptr": {
        "encoding": "bytes",
        "label": "string",
        "numberOfBytes": "32"
      },
      "t_string_storage": {
        "encoding": "bytes",
        "label": "string",
        "numberOfBytes": "32"
      }
    }
  },
  "userdoc": {
    "kind": "user",
    "methods": {},
    "version": 1
  }
}